{
  "contractName": "Whitelist",
  "abi": [
    {
      "anonymous": false,
      "inputs": [
        {
          "indexed": true,
          "internalType": "address",
          "name": "previousOwner",
          "type": "address"
        },
        {
          "indexed": true,
          "internalType": "address",
          "name": "newOwner",
          "type": "address"
        }
      ],
      "name": "OwnershipTransferred",
      "type": "event"
    },
    {
      "inputs": [],
      "name": "owner",
      "outputs": [
        {
          "internalType": "address",
          "name": "",
          "type": "address"
        }
      ],
      "stateMutability": "view",
      "type": "function"
    },
    {
      "inputs": [],
      "name": "renounceOwnership",
      "outputs": [],
      "stateMutability": "nonpayable",
      "type": "function"
    },
    {
      "inputs": [
        {
          "internalType": "address",
          "name": "newOwner",
          "type": "address"
        }
      ],
      "name": "transferOwnership",
      "outputs": [],
      "stateMutability": "nonpayable",
      "type": "function"
    },
    {
      "inputs": [
        {
          "internalType": "uint256",
          "name": "",
          "type": "uint256"
        }
      ],
      "name": "whitelistedAccounts",
      "outputs": [
        {
          "internalType": "address",
          "name": "",
          "type": "address"
        }
      ],
      "stateMutability": "view",
      "type": "function"
    },
    {
      "inputs": [
        {
          "internalType": "address",
          "name": "",
          "type": "address"
        }
      ],
      "name": "whitelistedFlags",
      "outputs": [
        {
          "internalType": "bool",
          "name": "",
          "type": "bool"
        }
      ],
      "stateMutability": "view",
      "type": "function"
    },
    {
      "inputs": [
        {
          "internalType": "address",
          "name": "",
          "type": "address"
        }
      ],
      "name": "whitelistedIndexes",
      "outputs": [
        {
          "internalType": "uint256",
          "name": "",
          "type": "uint256"
        }
      ],
      "stateMutability": "view",
      "type": "function"
    },
    {
      "inputs": [],
      "name": "getWhitelistLength",
      "outputs": [
        {
          "internalType": "uint256",
          "name": "",
          "type": "uint256"
        }
      ],
      "stateMutability": "view",
      "type": "function"
    },
    {
      "inputs": [],
      "name": "returnWhiteList",
      "outputs": [
        {
          "internalType": "address[]",
          "name": "",
          "type": "address[]"
        }
      ],
      "stateMutability": "view",
      "type": "function"
    },
    {
      "inputs": [
        {
          "internalType": "address",
          "name": "_address",
          "type": "address"
        }
      ],
      "name": "whiteListAddress",
      "outputs": [],
      "stateMutability": "nonpayable",
      "type": "function"
    },
    {
      "inputs": [
        {
          "internalType": "address",
          "name": "_address",
          "type": "address"
        }
      ],
      "name": "returnAccountIndex",
      "outputs": [
        {
          "internalType": "uint256",
          "name": "accountIndex",
          "type": "uint256"
        }
      ],
      "stateMutability": "view",
      "type": "function"
    },
    {
      "inputs": [
        {
          "internalType": "address",
          "name": "_address",
          "type": "address"
        }
      ],
      "name": "verifyCustomAddress",
      "outputs": [
        {
          "internalType": "bool",
          "name": "verifiedAddress",
          "type": "bool"
        }
      ],
      "stateMutability": "view",
      "type": "function"
    },
    {
      "inputs": [
        {
          "internalType": "address",
          "name": "_addressFrom",
          "type": "address"
        },
        {
          "internalType": "address",
          "name": "_addressTo",
          "type": "address"
        }
      ],
      "name": "updateWhitelist",
      "outputs": [],
      "stateMutability": "nonpayable",
      "type": "function"
    },
    {
      "inputs": [
        {
          "internalType": "address",
          "name": "_addressToDelete",
          "type": "address"
        }
      ],
      "name": "deleteFromWhitelist",
      "outputs": [],
      "stateMutability": "nonpayable",
      "type": "function"
    }
  ],
  "bytecode": "0x608060405234801561001057600080fd5b5061002d61002261003960201b60201c565b61004160201b60201c565b60018081905550610105565b600033905090565b60008060009054906101000a900473ffffffffffffffffffffffffffffffffffffffff169050816000806101000a81548173ffffffffffffffffffffffffffffffffffffffff021916908373ffffffffffffffffffffffffffffffffffffffff1602179055508173ffffffffffffffffffffffffffffffffffffffff168173ffffffffffffffffffffffffffffffffffffffff167f8be0079c531659141344cd1fd0a4f28419497f9722a3daafe3b4186f6b6457e060405160405180910390a35050565b611774806101146000396000f3fe608060405234801561001057600080fd5b50600436106100cf5760003560e01c80638da5cb5b1161008c578063b9f2716511610066578063b9f2716514610214578063cf52a7b214610244578063ecfb5d1714610260578063f2fde38b1461027c576100cf565b80638da5cb5b146101bc578063a13202e9146101da578063ab2b04cf146101f8576100cf565b80630b207ec9146100d4578063214d49071461010457806325fdda7d14610134578063332edb6d146101525780635eed7a6c14610182578063715018a6146101b2575b600080fd5b6100ee60048036038101906100e991906111ad565b610298565b6040516100fb919061135a565b60405180910390f35b61011e60048036038101906101199190611148565b6102d7565b60405161012b9190611472565b60405180910390f35b61013c6102ef565b6040516101499190611375565b60405180910390f35b61016c60048036038101906101679190611148565b61037d565b6040516101799190611472565b60405180910390f35b61019c60048036038101906101979190611148565b6103c6565b6040516101a99190611397565b60405180910390f35b6101ba61047d565b005b6101c4610505565b6040516101d1919061135a565b60405180910390f35b6101e261052e565b6040516101ef9190611472565b60405180910390f35b610212600480360381019061020d9190611171565b61053b565b005b61022e60048036038101906102299190611148565b6108fd565b60405161023b9190611397565b60405180910390f35b61025e60048036038101906102599190611148565b61091d565b005b61027a60048036038101906102759190611148565b610b92565b005b61029660048036038101906102919190611148565b610f5a565b005b600281815481106102a857600080fd5b906000526020600020016000915054906101000a900473ffffffffffffffffffffffffffffffffffffffff1681565b60036020528060005260406000206000915090505481565b6060600280548060200260200160405190810160405280929190818152602001828054801561037357602002820191906000526020600020905b8160009054906101000a900473ffffffffffffffffffffffffffffffffffffffff1673ffffffffffffffffffffffffffffffffffffffff1681526020019060010190808311610329575b5050505050905090565b6000600360008373ffffffffffffffffffffffffffffffffffffffff1673ffffffffffffffffffffffffffffffffffffffff168152602001908152602001600020549050919050565b6000806103d28361037d565b9050600060028281548110610410577f4e487b7100000000000000000000000000000000000000000000000000000000600052603260045260246000fd5b9060005260206000200160009054906101000a900473ffffffffffffffffffffffffffffffffffffffff1690508373ffffffffffffffffffffffffffffffffffffffff168173ffffffffffffffffffffffffffffffffffffffff16141561047657600192505b5050919050565b610485611052565b73ffffffffffffffffffffffffffffffffffffffff166104a3610505565b73ffffffffffffffffffffffffffffffffffffffff16146104f9576040517f08c379a00000000000000000000000000000000000000000000000000000000081526004016104f090611432565b60405180910390fd5b610503600061105a565b565b60008060009054906101000a900473ffffffffffffffffffffffffffffffffffffffff16905090565b6000600280549050905090565b610543611052565b73ffffffffffffffffffffffffffffffffffffffff16610561610505565b73ffffffffffffffffffffffffffffffffffffffff16146105b7576040517f08c379a00000000000000000000000000000000000000000000000000000000081526004016105ae90611432565b60405180910390fd5b600260015414156105fd576040517f08c379a00000000000000000000000000000000000000000000000000000000081526004016105f490611452565b60405180910390fd5b6002600181905550600061060f61052e565b1161064f576040517f08c379a0000000000000000000000000000000000000000000000000000000008152600401610646906113d2565b60405180910390fd5b80600460008273ffffffffffffffffffffffffffffffffffffffff1673ffffffffffffffffffffffffffffffffffffffff16815260200190815260200160002060009054906101000a900460ff16156106dd576040517f08c379a00000000000000000000000000000000000000000000000000000000081526004016106d4906113f2565b60405180910390fd5b826106e7816103c6565b610726576040517f08c379a000000000000000000000000000000000000000000000000000000000815260040161071d90611412565b60405180910390fd5b60006107318561037d565b90506001600460008673ffffffffffffffffffffffffffffffffffffffff1673ffffffffffffffffffffffffffffffffffffffff16815260200190815260200160002060006101000a81548160ff02191690831515021790555083600282815481106107c6577f4e487b7100000000000000000000000000000000000000000000000000000000600052603260045260246000fd5b9060005260206000200160006101000a81548173ffffffffffffffffffffffffffffffffffffffff021916908373ffffffffffffffffffffffffffffffffffffffff16021790555080600360008673ffffffffffffffffffffffffffffffffffffffff1673ffffffffffffffffffffffffffffffffffffffff168152602001908152602001600020819055506000600360008773ffffffffffffffffffffffffffffffffffffffff1673ffffffffffffffffffffffffffffffffffffffff168152602001908152602001600020819055506000600460008773ffffffffffffffffffffffffffffffffffffffff1673ffffffffffffffffffffffffffffffffffffffff16815260200190815260200160002060006101000a81548160ff021916908315150217905550505050600180819055505050565b60046020528060005260406000206000915054906101000a900460ff1681565b610925611052565b73ffffffffffffffffffffffffffffffffffffffff16610943610505565b73ffffffffffffffffffffffffffffffffffffffff1614610999576040517f08c379a000000000000000000000000000000000000000000000000000000000815260040161099090611432565b60405180910390fd5b600260015414156109df576040517f08c379a00000000000000000000000000000000000000000000000000000000081526004016109d690611452565b60405180910390fd5b600260018190555080600460008273ffffffffffffffffffffffffffffffffffffffff1673ffffffffffffffffffffffffffffffffffffffff16815260200190815260200160002060009054906101000a900460ff1615610a75576040517f08c379a0000000000000000000000000000000000000000000000000000000008152600401610a6c906113f2565b60405180910390fd5b6001600460008473ffffffffffffffffffffffffffffffffffffffff1673ffffffffffffffffffffffffffffffffffffffff16815260200190815260200160002060006101000a81548160ff0219169083151502179055506002829080600181540180825580915050600190039060005260206000200160009091909190916101000a81548173ffffffffffffffffffffffffffffffffffffffff021916908373ffffffffffffffffffffffffffffffffffffffff1602179055506001610b3a61052e565b610b4491906114d7565b600360008473ffffffffffffffffffffffffffffffffffffffff1673ffffffffffffffffffffffffffffffffffffffff16815260200190815260200160002081905550506001808190555050565b610b9a611052565b73ffffffffffffffffffffffffffffffffffffffff16610bb8610505565b73ffffffffffffffffffffffffffffffffffffffff1614610c0e576040517f08c379a0000000000000000000000000000000000000000000000000000000008152600401610c0590611432565b60405180910390fd5b60026001541415610c54576040517f08c379a0000000000000000000000000000000000000000000000000000000008152600401610c4b90611452565b60405180910390fd5b60026001819055506000610c6661052e565b11610ca6576040517f08c379a0000000000000000000000000000000000000000000000000000000008152600401610c9d906113d2565b60405180910390fd5b80610cb0816103c6565b610cef576040517f08c379a0000000000000000000000000000000000000000000000000000000008152600401610ce690611412565b60405180910390fd5b6000610cfa8361037d565b905060006001600280549050610d1091906114d7565b9050600060028281548110610d4e577f4e487b7100000000000000000000000000000000000000000000000000000000600052603260045260246000fd5b9060005260206000200160009054906101000a900473ffffffffffffffffffffffffffffffffffffffff1690508060028481548110610db6577f4e487b7100000000000000000000000000000000000000000000000000000000600052603260045260246000fd5b9060005260206000200160006101000a81548173ffffffffffffffffffffffffffffffffffffffff021916908373ffffffffffffffffffffffffffffffffffffffff1602179055506002805480610e36577f4e487b7100000000000000000000000000000000000000000000000000000000600052603160045260246000fd5b6001900381819060005260206000200160006101000a81549073ffffffffffffffffffffffffffffffffffffffff0219169055905582600360008373ffffffffffffffffffffffffffffffffffffffff1673ffffffffffffffffffffffffffffffffffffffff168152602001908152602001600020819055506000600360008773ffffffffffffffffffffffffffffffffffffffff1673ffffffffffffffffffffffffffffffffffffffff168152602001908152602001600020819055506000600460008773ffffffffffffffffffffffffffffffffffffffff1673ffffffffffffffffffffffffffffffffffffffff16815260200190815260200160002060006101000a81548160ff021916908315150217905550505050506001808190555050565b610f62611052565b73ffffffffffffffffffffffffffffffffffffffff16610f80610505565b73ffffffffffffffffffffffffffffffffffffffff1614610fd6576040517f08c379a0000000000000000000000000000000000000000000000000000000008152600401610fcd90611432565b60405180910390fd5b600073ffffffffffffffffffffffffffffffffffffffff168173ffffffffffffffffffffffffffffffffffffffff161415611046576040517f08c379a000000000000000000000000000000000000000000000000000000000815260040161103d906113b2565b60405180910390fd5b61104f8161105a565b50565b600033905090565b60008060009054906101000a900473ffffffffffffffffffffffffffffffffffffffff169050816000806101000a81548173ffffffffffffffffffffffffffffffffffffffff021916908373ffffffffffffffffffffffffffffffffffffffff1602179055508173ffffffffffffffffffffffffffffffffffffffff168173ffffffffffffffffffffffffffffffffffffffff167f8be0079c531659141344cd1fd0a4f28419497f9722a3daafe3b4186f6b6457e060405160405180910390a35050565b60008135905061112d81611710565b92915050565b60008135905061114281611727565b92915050565b60006020828403121561115a57600080fd5b60006111688482850161111e565b91505092915050565b6000806040838503121561118457600080fd5b60006111928582860161111e565b92505060206111a38582860161111e565b9150509250929050565b6000602082840312156111bf57600080fd5b60006111cd84828501611133565b91505092915050565b60006111e283836111ee565b60208301905092915050565b6111f78161150b565b82525050565b6112068161150b565b82525050565b60006112178261149d565b61122181856114b5565b935061122c8361148d565b8060005b8381101561125d57815161124488826111d6565b975061124f836114a8565b925050600181019050611230565b5085935050505092915050565b6112738161151d565b82525050565b60006112866026836114c6565b915061129182611582565b604082019050919050565b60006112a96030836114c6565b91506112b4826115d1565b604082019050919050565b60006112cc6036836114c6565b91506112d782611620565b604082019050919050565b60006112ef602e836114c6565b91506112fa8261166f565b604082019050919050565b60006113126020836114c6565b915061131d826116be565b602082019050919050565b6000611335601f836114c6565b9150611340826116e7565b602082019050919050565b61135481611549565b82525050565b600060208201905061136f60008301846111fd565b92915050565b6000602082019050818103600083015261138f818461120c565b905092915050565b60006020820190506113ac600083018461126a565b92915050565b600060208201905081810360008301526113cb81611279565b9050919050565b600060208201905081810360008301526113eb8161129c565b9050919050565b6000602082019050818103600083015261140b816112bf565b9050919050565b6000602082019050818103600083015261142b816112e2565b9050919050565b6000602082019050818103600083015261144b81611305565b9050919050565b6000602082019050818103600083015261146b81611328565b9050919050565b6000602082019050611487600083018461134b565b92915050565b6000819050602082019050919050565b600081519050919050565b6000602082019050919050565b600082825260208201905092915050565b600082825260208201905092915050565b60006114e282611549565b91506114ed83611549565b925082821015611500576114ff611553565b5b828203905092915050565b600061151682611529565b9050919050565b60008115159050919050565b600073ffffffffffffffffffffffffffffffffffffffff82169050919050565b6000819050919050565b7f4e487b7100000000000000000000000000000000000000000000000000000000600052601160045260246000fd5b7f4f776e61626c653a206e6577206f776e657220697320746865207a65726f206160008201527f6464726573730000000000000000000000000000000000000000000000000000602082015250565b7f696e76616c69642072657175657374203a3a2077686974656c6973746564206160008201527f63636f756e747320697320656d70747900000000000000000000000000000000602082015250565b7f696e76616c69642061646472657373203a3a2077686974656c6973746564206160008201527f63636f756e7473206d75737420626520756e6971756500000000000000000000602082015250565b7f696e76616c69642072657175657374203a3a206164647265737320746f206d6f60008201527f64696679206e6f7420666f756e64000000000000000000000000000000000000602082015250565b7f4f776e61626c653a2063616c6c6572206973206e6f7420746865206f776e6572600082015250565b7f5265656e7472616e637947756172643a207265656e7472616e742063616c6c00600082015250565b6117198161150b565b811461172457600080fd5b50565b61173081611549565b811461173b57600080fd5b5056fea2646970667358221220ba7aaf2d0f1d6d2130eecf9f50f1d21063c7753fe8369b0694bb5e1a75d7a18e64736f6c63430008030033",
  "immutableReferences": {},
  "source": "// SPDX-License-Identifier: MIT\npragma solidity 0.8.3;\n\nimport \"@openzeppelin/contracts/access/Ownable.sol\";\nimport \"@openzeppelin/contracts/security/ReentrancyGuard.sol\";\n\n/**\n * @title A minimalistic whitelist CRUD (Create, read, update and delete) dApp.\n * @author Attila Tunder\n * @dev Contract that allows the contract owner to create, read, update & delete records from a whitelist.\n */\n\ncontract Whitelist is Ownable, ReentrancyGuard {\n\n  /**\n   * @dev Store whitelisted addresses in an array.\n   */\n  address[] public whitelistedAccounts;\n\n  /**\n   * @dev Store the index of each address on the whitelist array.\n   */\n  mapping (address => uint) public whitelistedIndexes;\n\n  /**\n   * @dev Store a boolean flag of each address on the whitelist array (prevent record duplication).\n   */\n  mapping (address => bool) public whitelistedFlags;\n\n  /**\n   * @dev Modifier to make a function callable only when an address is not flagged.\n   *\n   * Requirements:\n   *\n   * - The address must not have a flag with the value of true.\n   */\n  modifier uniqueAccount(address _address) {\n    require(!whitelistedFlags[_address], \"invalid address :: whitelisted accounts must be unique\");\n    _;\n  }\n\n  /**\n   * @dev Modifier to make a function callable only when the whitelist array is populated with records.\n   *\n   * Requirements:\n   *\n   * - The 'whitelistedAccounts' array must have at least one record.\n   */\n  modifier whitelistNotEmpty() {\n    require(getWhitelistLength() > 0, \"invalid request :: whitelisted accounts is empty\");\n    _;\n  }\n\n  /**\n   * @dev Modifier to make a function callable only when an address is found on the whitelist.\n   *\n   * Requirements:\n   *\n   * - The 'whitelistedAccounts' array must contain the '_addressToLookup' address.\n   */\n  modifier addressIsFound(address _addressToLookup) {\n    require(verifyCustomAddress(_addressToLookup), \"invalid request :: address to modify not found\");\n    _;\n  }\n\n  /**\n   * @dev Returns the length of the 'whitelistedAccounts' array.\n   */\n  function getWhitelistLength() public view returns (uint) {\n    return whitelistedAccounts.length;\n  }\n\n  /**\n   * @dev Returns the 'whitelistedAccounts' array.\n   */\n  function returnWhiteList() public view returns (address[] memory) {\n    return whitelistedAccounts;\n  }\n\n  /**\n   * @dev Add an address to the 'whitelistedAccounts' array.\n   * - Sets whitelist flag to true (preventing duplicate records).\n   * - Pushes address to the whitelist.\n   * - Stores the index of the recently added record. (lookup support).\n   *\n   * Requirements:\n   *\n   * - The contract must be called by the owner.\n   * - The contract must not have (reentrant) calls.\n   * - The contract must not have the input address stored in the 'whitelistedAccounts' array.\n   */\n  function whiteListAddress(address _address) public onlyOwner nonReentrant uniqueAccount(_address) {\n    whitelistedFlags[_address] = true;\n    whitelistedAccounts.push(_address);\n    whitelistedIndexes[_address] = getWhitelistLength() - 1;\n  }\n\n  /**\n   * @dev Returns the index of the input address from the 'whitelistedAccounts' array.\n   */\n  function returnAccountIndex(address _address) public view returns (uint accountIndex){\n    accountIndex = whitelistedIndexes[_address];\n  }\n\n  /**\n   * @dev Returns true if the input address is found in the 'whitelistedAccounts' array, and false otherwise.\n   */\n  function verifyCustomAddress(address _address) public view returns (bool verifiedAddress) {\n    verifiedAddress = false;\n    uint accountIndex = returnAccountIndex(_address);\n    address requestedAccountAddress = whitelistedAccounts[accountIndex];\n    if(requestedAccountAddress == _address) {\n      verifiedAddress = true;\n    }\n  }\n\n  /**\n   * @dev Update an existing address to another one in the 'whitelistedAccounts' array.\n   * - Sets whitelist flag of the '_addressTo' to true (preventing duplicate records).\n   * - Updates an address to another one in the 'whitelistedAccounts' array.\n   * - Swaps the index of the '_addressTo' record with the 'oldAccountIndex'.\n   * - Resets the index of the 'oldAccountIndex' back to its default value. (0)\n   * - Resets the flag of the 'oldAccountIndex' back to its default value. (false)\n   *\n   * Requirements:\n   *\n   * - The contract must be called by the owner.\n   * - The contract must not have (reentrant) calls.\n   * - The 'whitelistedAccounts' array must have at least one record.\n   * - The contract must not have the '_addressTo' update stored in the 'whitelistedAccounts' array.\n   * - The 'whitelistedAccounts' array must contain the '_addressFrom' address.\n   */\n  function updateWhitelist(address _addressFrom, address _addressTo) public onlyOwner nonReentrant whitelistNotEmpty uniqueAccount(_addressTo) addressIsFound(_addressFrom) {\n    uint oldAccountIndex = returnAccountIndex(_addressFrom);\n    whitelistedFlags[_addressTo] = true;\n    whitelistedAccounts[oldAccountIndex] = _addressTo;\n    whitelistedIndexes[_addressTo] = oldAccountIndex;\n    whitelistedIndexes[_addressFrom] = 0;\n    whitelistedFlags[_addressFrom] = false;\n  }\n\n  /**\n   * @dev Delete an existing address from the 'whitelistedAccounts' array.\n   * - Swaps the '_addressToDelete' element with the last element of the 'whitelistedAccounts' array.\n   * - Swaps the index of the 'addressToDeleteIndex' record with the 'lastItemAddress'.\n   * - Resets the index of the '_addressToDelete' back to its default value. (0)\n   * - Resets the flag of the '_addressToDelete' back to its default value. (false)\n   *\n   * Requirements:\n   *\n   * - The contract must be called by the owner.\n   * - The contract must not have (reentrant) calls.\n   * - The 'whitelistedAccounts' array must have at least one record.\n   * - The 'whitelistedAccounts' array must contain the '_addressToDelete' address.\n   */\n  function deleteFromWhitelist(address _addressToDelete) public onlyOwner nonReentrant whitelistNotEmpty addressIsFound(_addressToDelete) {\n    uint addressToDeleteIndex = returnAccountIndex(_addressToDelete);\n    uint lastItemIndex = (whitelistedAccounts.length - 1);\n    address lastItemAddress = whitelistedAccounts[lastItemIndex];\n    whitelistedAccounts[addressToDeleteIndex] = lastItemAddress;\n    whitelistedAccounts.pop();\n    whitelistedIndexes[lastItemAddress] = addressToDeleteIndex;\n    whitelistedIndexes[_addressToDelete] = 0;\n    whitelistedFlags[_addressToDelete] = false;\n  }\n\n}\n",
  "sourcePath": "/Users/eth3l/blockchain-developer-bootcamp-final-project/contracts/Whitelist.sol",
  "compiler": {
    "name": "solc",
    "version": "0.8.3+commit.8d00100c.Emscripten.clang"
  },
  "schemaVersion": "3.4.3",
  "updatedAt": "2021-11-19T14:57:39.837Z",
  "devdoc": {
    "author": "Attila Tunder",
    "details": "Contract that allows the contract owner to create, read, update & delete records from a whitelist.",
    "kind": "dev",
    "methods": {
      "deleteFromWhitelist(address)": {
        "details": "Delete an existing address from the 'whitelistedAccounts' array. - Swaps the '_addressToDelete' element with the last element of the 'whitelistedAccounts' array. - Swaps the index of the 'addressToDeleteIndex' record with the 'lastItemAddress'. - Resets the index of the '_addressToDelete' back to its default value. (0) - Resets the flag of the '_addressToDelete' back to its default value. (false) Requirements: - The contract must be called by the owner. - The contract must not have (reentrant) calls. - The 'whitelistedAccounts' array must have at least one record. - The 'whitelistedAccounts' array must contain the '_addressToDelete' address."
      },
      "getWhitelistLength()": {
        "details": "Returns the length of the 'whitelistedAccounts' array."
      },
      "owner()": {
        "details": "Returns the address of the current owner."
      },
      "renounceOwnership()": {
        "details": "Leaves the contract without owner. It will not be possible to call `onlyOwner` functions anymore. Can only be called by the current owner. NOTE: Renouncing ownership will leave the contract without an owner, thereby removing any functionality that is only available to the owner."
      },
      "returnAccountIndex(address)": {
        "details": "Returns the index of the input address from the 'whitelistedAccounts' array."
      },
      "returnWhiteList()": {
        "details": "Returns the 'whitelistedAccounts' array."
      },
      "transferOwnership(address)": {
        "details": "Transfers ownership of the contract to a new account (`newOwner`). Can only be called by the current owner."
      },
      "updateWhitelist(address,address)": {
        "details": "Update an existing address to another one in the 'whitelistedAccounts' array. - Sets whitelist flag of the '_addressTo' to true (preventing duplicate records). - Updates an address to another one in the 'whitelistedAccounts' array. - Swaps the index of the '_addressTo' record with the 'oldAccountIndex'. - Resets the index of the 'oldAccountIndex' back to its default value. (0) - Resets the flag of the 'oldAccountIndex' back to its default value. (false) Requirements: - The contract must be called by the owner. - The contract must not have (reentrant) calls. - The 'whitelistedAccounts' array must have at least one record. - The contract must not have the '_addressTo' update stored in the 'whitelistedAccounts' array. - The 'whitelistedAccounts' array must contain the '_addressFrom' address."
      },
      "verifyCustomAddress(address)": {
        "details": "Returns true if the input address is found in the 'whitelistedAccounts' array, and false otherwise."
      },
      "whiteListAddress(address)": {
        "details": "Add an address to the 'whitelistedAccounts' array. - Sets whitelist flag to true (preventing duplicate records). - Pushes address to the whitelist. - Stores the index of the recently added record. (lookup support). Requirements: - The contract must be called by the owner. - The contract must not have (reentrant) calls. - The contract must not have the input address stored in the 'whitelistedAccounts' array."
      }
    },
    "stateVariables": {
      "whitelistedAccounts": {
        "details": "Store whitelisted addresses in an array."
      },
      "whitelistedFlags": {
        "details": "Store a boolean flag of each address on the whitelist array (prevent record duplication)."
      },
      "whitelistedIndexes": {
        "details": "Store the index of each address on the whitelist array."
      }
    },
    "title": "A minimalistic whitelist CRUD (Create, read, update and delete) dApp.",
    "version": 1
  },
  "userdoc": {
    "kind": "user",
    "methods": {},
    "version": 1
  }
}